:020000040800F2
:10000000C0E700204D1C00087505000877050008B2
:100010007B0500087F05000883050008000000003C
:10002000000000000000000000000000870500083C
:1000300089050008000000008B0500088D050008F8
:10004000671C0008671C0008671C0008671C000884
:10005000671C0008671C0008671C0008671C000874
:10006000671C0008671C0008671C0008671C000864
:10007000671C0008671C0008671C0008671C000854
:10008000671C0008671C0008671C0008671C000844
:10009000671C0008671C0008671C0008671C000834
:1000A000671C0008671C0008671C0008671C000824
:1000B000671C000839080008671C0008671C000856
:1000C000671C0008671C0008671C0008671C000804
:1000D000671C0008C11B0008671C0008671C00089B
:1000E000671C0008671C0008671C0008671C0008E4
:1000F000671C0008671C0008671C0008671C0008D4
:10010000671C0008671C0008671C0008671C0008C3
:10011000671C0008671C0008671C0008671C0008B3
:10012000671C0008671C0008671C0008671C0008A3
:10013000671C0008671C0008671C0008671C000893
:10014000671C0008671C0008671C0008671C000883
:10015000671C0008671C0008671C0008671C000873
:10016000671C0008671C0008671C0008671C000863
:10017000671C0008671C0008671C0008671C000853
:10018000671C0008671C000800F002F800F04FF838
:100190000AA090E8000C82448344AAF10107DA45E2
:1001A00001D100F044F8AFF2090EBAE80F0013F0E5
:1001B000010F18BFFB1A43F0010318473834010040
:1001C00058340100103A24BF78C878C1FAD85207D1
:1001D00024BF30C830C144BF04680C6070470000C1
:1001E0000023002400250026103A28BF78C1FBD840
:1001F000520728BF30C148BF0B607047662906F020
:100200001B83642904F0CC86782904F0058700203C
:1002100070471FB506F00BFB05F060FA04000020E4
:10022000002105F0A1FFE0601FBD10B510BD05F075
:1002300055FB1146FFF7EDFF00F0F3F805F073FBF7
:1002400003B4FFF7F2FF03BC01F05AFC2DE9F041C3
:10025000FF2000F09AFE1E25B24830F814000D2150
:1002600090FBF1F0C0F59176002423E0AD4830F822
:1002700014000D2190FBF1F0C0F591701FFA80F889
:10028000274604EBD7735B101E339AB2B1B2A8B203
:10029000434601F097F8204604EBD071491001F174
:1002A0001E05A04830F814000D2190FBF1F0C0F5B8
:1002B0009176A41C40F233308442D7DBBDE8F08154
:1002C00010B52DED048B90B0B0EE408A9FED960AEC
:1002D000C8EE000A10EE904A204606F037FA41ECCC
:1002E000190B8DED009B4FF4805290A103A804F0F0
:1002F00043FE6FF07F4000F048FE03AA002108464D
:1003000000F0DCFF6FF07F4000F03FFE02230A2286
:100310004FF49471362000F0FCFF022314224FF4B6
:1003200094714E2000F0F5FF10B0BDEC048B10BDB1
:100330002DE9F0412DED068B00246BE0002514E043
:100340006019824901EB8000D0ED000A80480088E6
:1003500000EE100AB8EE400A30EE800ABCEEC00A89
:1003600010EE100A7A4908806D1C052DE8DB7849EB
:100370000888C11700EB91618911754A118000202E
:1003800000F003FE052094FBF0F01E3086B205203D
:1003900094FBF0F01E3087B23C2332464FF491714B
:1003A000384601F00FF86FF07F4000F0EEFD68482E
:1003B0000088C12802DDC1206549088064480088A2
:1003C00005F0BDFF41EC1A0B9FED620B53EC102BB7
:1003D00005F0C8FF41EC190B9FED600B53EC102B9F
:1003E00006F0BEF841EC180B05F07CFF86B2052044
:1003F00094FBF0F01E3087B2052094FBF0F01E3025
:100400001FFA80F833463A464FF49171404600F0A7
:10041000D9FF641DB4F5006F90DBBDEC068BBDE821
:10042000F0812DED028B86B04FF4A06001F02EFC20
:10043000A82001F0E3FA4FF4E13001F06FFB00F087
:10044000AFF900F00FFA01F055FA01F0A3FA01F04C
:1004500062FA00F0BEFD052300221821104600F0CC
:1004600058FF53214FF6FF7000F0BAF90123002224
:10047000190301A804F020FC53E000F001FB05463D
:100480006FF07F4000F081FD05232A4618210020EF
:1004900000F03FFF00241AE0224931F81400C11790
:1004A00000EB1161091200EE101AB8EEC00A2D4AD5
:1004B00002EBC40181ED000A9FED2B0A6000401C95
:1004C000114601EB800080ED000A601C84B2B4F597
:1004D000805FE1DB0021254802F0C4FE00202449B2
:1004E0000870204901A804F0C9FB204802F0BEFEB4
:1004F0001F49097800EB014000EE100AB8EE408A6F
:100500004FF480521149174804F00EF8FFF710FF1E
:10051000B0EE480AFFF7D4FEFFF798FE642001F022
:10052000CFFAAAE794C0002000007A442564207026
:100530006F696E74204646542072756E74696D65DD
:100540003A25302E33666D73000000008080002055
:1005500002000020000000000000F83F0000000042
:1005600000207240800000200000000000040040D5
:1005700000000020704700BFFEE700BFFEE700BF9D
:10058000FEE700BFFEE77047704770477047000006
:100590000CB50020019000907648006840F480304F
:1005A0007449086000BF7348006800F40030009090
:1005B0000198401C0190009818B90198B0F5A04F1F
:1005C000F1D16C48006800F4003010B101200090B7
:1005D00001E0002000900098012846D16548403095
:1005E000006840F08050634940310860624800680C
:1005F00040F44040604908605E48083000685D494A
:10060000083108600846006840F400400860084669
:10061000006840F4A05008605848091F0860081F8F
:10062000006840F08070091F086000BF51480068F2
:1006300000F000700028F9D040F2057050490860C1
:100640004C480830006820F003004A49083108602F
:100650000846006840F00200086000BF45480830C6
:10066000006800F00C000828F8D10CBD10B5454812
:10067000006840F47000434908603E48006840F05C
:1006800001003C49086000203A49083108603948B7
:1006900000683D490840374908603C48091D08602A
:1006A000081F006820F48020091F086000203149DD
:1006B0000C310860FFF76CFF4FF000603149803962
:1006C000086010BD70B50020002202230024022122
:1006D000284D08352D6805F00C0020B1042806D0FF
:1006E000082834D107E02A4D2A4E356033E02A4DE0
:1006F000284E35602FE01F4D2D1D2D68C5F3805409
:100700001C4D2D1D2D6805F03F0154B1224DB5FB48
:10071000F1F5184E361D3668C6F3881605FB06F24D
:1007200009E01B4DB5FBF1F5124E361D3668C6F3D8
:10073000881605FB06F20F4D2D1D2D68C5F30145EA
:100740006D1C6B00B2FBF3F5124E356003E0104DEB
:10075000104E356000BF00BF064D08352D68C5F34B
:1007600003150E4E705D0B4D2D68C540094E35606A
:1007700070BD00000038024000700040085440077F
:10078000003C024088ED00E0FFFFF6FE1030002440
:100790000024F4000400002000127A000800002069
:1007A0001CB50121202002F0E9F84FF4C060009050
:1007B00001208DF8040000208DF8060003208DF83C
:1007C000050001208DF807006946044801F054FB3C
:1007D0004FF4C061014801F0CBFB1CBD0014024086
:1007E0007FB505460C460121022002F010F9029562
:1007F000ADF804400020ADF80600ADF80C0001A9EA
:10080000164802F0E6FC01221146144803F082F972
:100810000121124802F066FD1D208DF80000012024
:100820008DF8010003208DF8020001208DF80300EF
:10083000684601F030FA7FBD10B50121074803F08A
:1008400080F9012804D106480078401C044908704A
:100850000121024803F086F910BD000000040040A9
:10086000000000201CB50121042002F087F81B20A5
:10087000009002208DF8050001208DF80400002072
:100880008DF8060001208DF807006946A04801F0A8
:10089000F3FA4FF4F070009002208DF8050000206C
:1008A0008DF8040001208DF807006946984801F092
:1008B000E3FA1CBD70B563254FF4FF709449143101
:1008C0000860081F006884B240F2FD100440B4F5CF
:1008D000FE7F2AD0052001F0F3F88D481030006823
:1008E00084B240F2FD100440B4F5FE7F1DD0FC2C14
:1008F0000ED0B4F5BE7F09D0B4F5DE7F04D0B4F5D8
:10090000EE7F07D1012505E0022503E0032501E084
:10091000142500BF00BF05E07D481030006884B298
:1009200004F4F074B4F5F07FF6D140F2FD1078498C
:1009300014310860081F006884B240F2FB100440C4
:10094000801E844228D0052001F0BAF8704810308B
:10095000006884B240F2FB100440801E84421BD029
:10096000F92C0CD0A4F2791038B1402803D06028BB
:1009700007D1042505E0052503E0062501E01E2535
:1009800000BF00BF05E062481030006884B204F484
:10099000F074B4F5F07FF6D140F2F5105C491431F3
:1009A0000860081F006884B240F2FD10044040F265
:1009B000F510844229D0052001F082F85448103007
:1009C000006884B240F2FD10044040F2F510844209
:1009D0001BD0F52C0CD0A4F2751038B1402803D0F0
:1009E000602807D1072505E0082503E0092501E077
:1009F000282500BF00BF05E045481030006884B2DC
:100A000004F4F074B4F5F07FF6D140F2ED104049F3
:100A100014310860081F006884B240F2FD100440E1
:100A200040F2ED10844229D0052001F049F8384801
:100A30001030006884B240F2FD10044040F2ED1026
:100A400084421BD0ED2C0CD0A4F26D1038B140289C
:100A500003D0602807D1322505E0002503E03C25BE
:100A600001E0462500BF00BF05E0294810300068BE
:100A700084B204F4F074B4F5F07FF6D1284670BD6A
:100A800070B500240126FFF715FF0546632D00D140
:100A9000002639E0322D1AD006DC142D0BD01E2D85
:100AA0000DD0282D1ED10EE03C2D14D0462D16D091
:100AB000632D17D115E04FF6FF74002618E04FF6AE
:100AC000FE74002614E04FF6FD74002610E04FF689
:100AD000FC7400260CE04FF6FB74002608E00026AC
:100AE00006E005E004EB840005EB400084B200BFA3
:100AF00000BF052322464FF49171002000F009FC4D
:100B000016B1FFF7D7FE0546002EC3D1204670BDB3
:100B100000080240014607E0002001E0421C90B2BC
:100B200041F288329042F9DB0A00A1F1010399B247
:100B3000F2D170474FF0C04108807047FE490880ED
:100B40007047FD490888704700B502460B462A20C9
:100B5000FFF7F0FF1012FFF7F1FFD0B2FFF7EEFF43
:100B60000120FFF7EBFFDF20FFF7E8FF2B20FFF767
:100B7000E1FF1812FFF7E2FFD8B2FFF7DFFF012015
:100B8000FFF7DCFFDF20FFF7D9FF00BD2DE9F043C1
:100B900005460E4600240027A046A146E7484088A7
:100BA000A84203DDE5488088B04202DC0020BDE8B1
:100BB000F08331462846FFF7C7FF2E20FFF7BAFF24
:100BC000FFF7BFFF0446FFF7BCFF044604F0FC003C
:100BD000C70004F47844FFF7B4FF4FEAD02844EA92
:100BE000070040EA08094846E1E71CB501211C203E
:100BF00001F0C4FE02208DF8040000208DF80600EC
:100C000003208DF8050001208DF80700802000905A
:100C10006946CB4801F030F90C220721C84801F0A1
:100C2000B6F94FF4006000906946C54801F024F918
:100C30000C220B21C24801F0AAF92020009069463D
:100C4000BF4801F019F90C220521BD4801F09FF9B8
:100C5000102000906946BA4801F00EF90C220421D8
:100C6000B74801F094F94FF4804000906946B448C9
:100C700001F002F90C220E21B14801F088F94FF47D
:100C8000004000906946AE4801F0F6F80C220F21B2
:100C9000AB4801F07CF9012000906946A84801F0BA
:100CA000EBF80C220021A64801F071F90220009017
:100CB0006946A34801F0E0F80C220121A04801F0A8
:100CC00066F98020009069469E4801F0D5F80C2214
:100CD00007219C4801F05BF94FF480700090694651
:100CE000984801F0C9F80C220821964801F04FF904
:100CF0004FF4007000906946924801F0BDF80C2254
:100D00000921904801F043F94FF480600090694652
:100D10008C4801F0B1F80C220A218A4801F037F919
:100D20004FF4006000906946864801F0A5F80C2257
:100D30000B21844801F02BF94FF480500090694654
:100D4000804801F099F80C2211467E4801F01FF905
:100D50004FF40050009069467A4801F08DF80C225B
:100D60000D21784801F013F94FF480400090694656
:100D7000744801F081F80C220E21724801F007F945
:100D80004FF40040009069466E4801F075F80C225F
:100D90000F216C4801F0FBF84FF480700090694619
:100DA000674801F069F80C220821654801F0EFF866
:100DB0004FF4007000906946614801F05DF80C2224
:100DC00009215F4801F0E3F84FF480600090694624
:100DD0005B4801F051F80C220A21594801F0D7F87C
:100DE00001208DF8040000208DF806008DF8050024
:100DF00001208DF80700042000906946524801F058
:100E00003BF84FF48050009069464D4801F034F8AB
:100E10004FF480514A4801F0ABF81CBD00B597B0C3
:100E20000121084601F0E2FD0020109011900320FE
:100E3000129000201390149015901690019002903B
:100E400003901020049000200590079006900890D1
:100E500009904FF480500A9000200B904FF480408E
:100E60000C9000200D9010A80F9001A801F0E3F85D
:100E70000121002001F06AF917B000BD10B500246F
:100E800000210846FFF760FE2C20FFF753FE00BF4D
:100E900004E02A48808928490880641CB4F5163F7C
:100EA000F7D310BD00B5024624480274007C58BB3D
:100EB0003620FFF73FFE2820FFF740FE2A20FFF7ED
:100EC00039FE0020FFF73AFE0020FFF737FE012031
:100ED000FFF734FEDF20FFF731FE2B20FFF72AFE5D
:100EE0000020FFF72BFE0020FFF728FE0120FFF770
:100EF00025FE3F20FFF722FE4FF4F0700F49488097
:100F00004FF4A070888039E00C48007CB0BB3620DC
:100F1000FFF710FE4820FFF711FE2A20FFF70AFE18
:100F20000020FFF70BFE0020FFF708FE0120FFF76F
:100F300005FE3F200AE000000000026080C00020A3
:100F4000000C02400010024000080240FFF7F6FDCE
:100F50002B20FFF7EFFD0020FFF7F0FD0020FFF74B
:100F6000EDFD0120FFF7EAFDDF20FFF7E7FD4FF47D
:100F7000A070FB4948804FF4F070888000BDF849AC
:100F800048747047F7490860704730B50023002166
:100F9000002200F47804230A00F47C446109C0F3C1
:100FA000C40243EA01041443ED4DAC6030BD30B5DA
:100FB00000230021002200F47804230A00F47C447A
:100FC0006109C0F3C40243EA01041443E44DEC6038
:100FD00030BD10B5FFF709FEFFF720FF0421E248FE
:100FE00000F0C8FF1E20FFF795FD0421DE4800F049
:100FF000BFFF1E20FFF78EFDD320FFF79BFDFFF7FD
:10100000A0FDD7490880FFF79CFDD5490880FFF770
:1010100098FDD3490880084600884FF6FF7101EA21
:101020000020CF490880FFF78CFDCD49098808438F
:10103000CB49088008460188CCA003F091FFC8483E
:10104000008849F28841884201D000BFFEE7E020D5
:10105000FFF770FD0020FFF771FD0320FFF76EFD25
:101060000C20FFF76BFD0920FFF768FD1720FFF745
:1010700065FD0920FFF762FD3E20FFF75FFD892037
:10108000FFF75CFD4920FFF759FD0820FFF756FDEB
:101090000D20FFF753FD0A20FFF750FD1320FFF747
:1010A0004DFD1520FFF74AFD0F20FFF747FDE1201A
:1010B000FFF740FD0020FFF741FD1120FFF73EFD47
:1010C0001520FFF73BFD0320FFF738FD0F20FFF74A
:1010D00035FD0520FFF732FD2D20FFF72FFD3420D1
:1010E000FFF72CFD4120FFF729FD0220FFF726FD29
:1010F0000B20FFF723FD0A20FFF720FD3320FFF729
:101100001DFD3720FFF71AFD0F20FFF717FDC02048
:10111000FFF710FD1720FFF711FD1520FFF70EFD5B
:10112000C120FFF707FD4120FFF708FDC520FFF7AD
:1011300001FD0020FFF702FD1220FFF7FFFC8020D9
:10114000FFF7FCFC3620FFF7F5FC4820FFF7F6FC24
:101150003A20FFF7EFFC5520FFF7F0FCB020FFF737
:10116000E9FC0020FFF7EAFCB120FFF7E3FCA02038
:10117000FFF7E4FCB420FFF7DDFC0220FFF7DEFC04
:10118000B620FFF7D7FC0220FFF7D8FC0220FFF7BC
:10119000D5FCE920FFF7CEFC0020FFF7CFFCF720BD
:1011A000FFF7C8FCA920FFF7C9FC5120FFF7C6FCD8
:1011B0002C20FFF7C3FC8220FFF7C0FC1120FFF7B3
:1011C000B9FC782000F07CFC2920FFF7B3FC00205C
:1011D000FFF7EDFE6FF07F40FFF7D7FE6748FFF7A0
:1011E000D1FE0120FFF7CBFE0020FFF75BFEFFF7EB
:1011F00045FE10BD30B504460D4629462046FFF792
:10120000A3FC2C20FFF796FC554800895C49088018
:1012100030BD2DE9F0470446884615460026B14604
:101220002746A5F12000C5B200BF40E04D48006848
:1012300000684C490968098905FB016110F801A0A3
:101240004FF000092DE00AF0010058B14146384640
:10125000FFF77AFC2C20FFF76DFC414800894849D4
:1012600008800AE041463846FFF76EFC2C20FFF765
:1012700061FC3B488089424908804FEA6A0A781C31
:1012800087B2381B374909688988884205D12746C3
:1012900008F101001FFA80F806E009F101001FFAC9
:1012A00080F9B9F1080FCEDB00BF701C86B22D4863
:1012B00000680089B042B9DCBDE8F08770B505462A
:1012C0000E4614460AE0227831462846FFF7A1FF71
:1012D000244800688088284485B2641C20484088DF
:1012E000A84202DD20780028EDD170BD70B502461D
:1012F000012304E003EB830463004C1EE1B20029E8
:10130000F8DCB2FBF3F40A25B4FBF5F605FB164056
:1013100070BD2DE9F0470546894690461E464FF0C0
:10132000000A00244AE0301B401EC1B24046FFF7CD
:10133000DDFF0746BAF1000F31D1701EA0422EDD4D
:101340006FB90748407CE8B906490968898804FBF9
:10135000015188B230224946FFF75BFF1CE01CE0D8
:1013600080C000201800002000080240204C4344A8
:101370002049443A494C4925780D0A0028000020AC
:1013800000000260FE490968898804FB015188B2A7
:1013900020224946FFF73DFF0EE04FF0010A07F11A
:1013A0003001CAB2F6490968898804FB015188B244
:1013B0004946FFF72EFF00BF601CC4B2B442B2DB47
:1013C000BDE8F0872DE9F04F89B005460E469146FD
:1013D0009A460027B846BB46002008900790069022
:1013E0000590049000240390029001900090A9EBD6
:1013F0000500002802DDA9EB050001E0A5EB0900CE
:1014000007B2AAEB0600002802DDAAEB060001E005
:10141000A6EB0A000FFA80F80FFA85FB30B20890AD
:10142000A94503DB01200790069003E04FF0FF3051
:1014300007900690B24503DB01200590049003E07D
:101440004FF0FF300590049047450DDB00200790DA
:1014500004903C46384607EBD071491009B203911D
:10146000CDF8088001970CE00020069005904446D6
:10147000404608EBD071491009B203910297CDF8AC
:1014800004800020009027E0089A91B21FFA8BF0A8
:10149000FFF7B0FEDDE90210084400B203900398A4
:1014A000A0420CDB0398001B00B20390079858443D
:1014B0000FFA80FB05990898084400B20890069836
:1014C00058440FFA80FB04990898084400B2089029
:1014D0000098401C00B20090DDE900018842D3DD95
:1014E00009B0BDE8F08FF0B504460D4616461F461C
:1014F000A01982B22B4629462046FFF763FFE81960
:1015000083B2A01982B2E81981B22046FFF75AFFD0
:10151000E81983B2224629462046FFF753FFE9190E
:101520008BB2A1198AB2A11988B22946FFF74AFFE6
:10153000F0BD2DE9F04706460F469146C9F100047B
:1015400000254FEA4900C0F1020800BF7A1991B2A4
:10155000321B90B2FFF74EFE7A1991B2321990B257
:10156000FFF748FE7A1B91B2321990B2FFF742FEA4
:101570007A1B91B2321B90B2FFF73CFEC246AA45DD
:101580000BDC681C0546012101EB40008044EC4265
:1015900003D1A24501DC4FF0000AA24505DD601C25
:1015A0000446012101EB40008044002CCEDDBDE863
:1015B000F0872DE9F84F06460F4691469B46C9F144
:1015C000000400254FEA4900C0F10208DFED6D1A62
:1015D000B0EE610ADFED6B1AF0EE610ADFED691A19
:1015E000B0EE611A01EE909AF8EEE11AF0EE610A9F
:1015F00001EE90BAF8EEE11AB0EE611AD94566DD57
:1016000000BFC0EE811AB0EE610A01EE905AF8EE0A
:10161000E11A81EE802AFCEEC21A11EE900A3844DB
:1016200080B2311B009088B20099FFF7E3FD01EE14
:10163000905AF8EEE11A81EE802AFCEEC21A11EE01
:10164000900A384480B23119009088B20099FFF7AF
:10165000D1FD01EE905AF8EEE11A81EE802AFCEEFF
:10166000C21A11EE900A381A80B23119009088B26D
:101670000099FFF7BFFD01EE905AF8EEE11A81EEF6
:10168000802AFCEEC21A11EE900A381A80B2311B81
:10169000009088B20099FFF7ADFDC246AA450BDC69
:1016A000681C0546012101EB40008044EC4203D157
:1016B000A24501DC4FF0000AA24505DD601C04468E
:1016C000012101EB40008044002C9ADD6DE0CBF15C
:1016D0000005002400BFC1EE201AB0EE610A01EE41
:1016E000904AF8EEE11A81EE802AFCEEC21A11EE61
:1016F000900A301A80B20090781981B20098FFF7F2
:1017000079FD01EE904AF8EEE11A81EE802AFCEEB6
:10171000C21A11EE900A304480B20090781981B25A
:101720000098FFF767FD01EE904AF8EEE11A81EEAE
:10173000802AFCEEC21A11EE900A304480B200906A
:10174000781B81B20098FFF755FD01EE904AF8EE44
:10175000E11A81EE802AFCEEC21A11EE900A301ACC
:1017600080B20090781B81B20098FFF743FDC2461B
:10177000A24510DC601C044600EB4000401C03E066
:1017800018000020000000008044E54203D1AA4573
:1017900001DC4FF0000AAA4505DD681C054600EB98
:1017A0004000401C8044002D95DDBDE8F88F2DE9F8
:1017B000F04381460D4616461F460024A04600BF52
:1017C00016E0281981B24846FFF7BEF92C20FFF732
:1017D000B1F94FF0000807E0444800894449088007
:1017E00008F101001FFA80F8B045F5DB601C84B2F7
:1017F000BC42E6DBBDE8F0832DE9F04706460F4624
:1018000090460320A0EB48090024454664E04DB310
:10181000A7EB050C4FF0020A0AFB05CC1FFA8CF36C
:10182000A6EB040C1FFA8CF2A7EB050C1FFA8CF147
:10183000A6EB040C1FFA8CF0FFF7C4FDA7EB050C18
:101840000AFB05CC1FFA8CF306EB040C1FFA8CF292
:10185000A7EB050C1FFA8CF106EB040C1FFA8CF0B9
:10186000FFF7B0FD4CB3A7EB040C4FF0020A0AFBE4
:1018700004CC1FFA8CF3A6EB050C1FFA8CF2A7EB35
:10188000040C1FFA8CF1A6EB050C1FFA8CF0FFF785
:1018900099FDA7EB040C0AFB04CC1FFA8CF306EBB2
:1018A000050C1FFA8CF2A7EB040C1FFA8CF106EB67
:1018B000050C1FFA8CF0FFF785FDB9F1000F04DA73
:1018C000062000EB8400814405E0601B0A2101EB47
:1018D000800081446D1E641CAC4298D94246394652
:1018E0003046FFF726FEBDE8F087000080C00020EC
:1018F000000002601CB50121084601F03FF80320FA
:1019000000908DF8040000208DF8070069461F48FC
:1019100000F0B2FA1CBD00B58BB00121080201F045
:1019200087F80020099007904FF48030089000203D
:101930000A9007A802F02CFA01208DF80900002077
:1019400005900490039001208DF81800002001906C
:1019500001208DF8080001A90D4802F0EAF90723DB
:10196000012200210A4802F06AFA0121084802F027
:1019700011FB0121064802F002FB0121044802F09C
:101980001EFA034802F0B7FA0BB000BD0000024097
:101990000020014000B58FB00121880500F0EEFF66
:1019A0001348019013480290002003904FF4805098
:1019B00004900020009005904FF480600690C000D5
:1019C000089080100790C010099040020A900020F3
:1019D0000B9001200C9000200D900E906946064857
:1019E00002F070FC0121044802F0A6FC0FB000BD1B
:1019F0004C20014094C000201064024010B5044601
:101A00006FF0040000F094F9E11704EB5171C1F399
:101A1000C701394A11701046007800EB4001C1EB54
:101A2000C0104FF6FF7101EAC0003449088010BDB4
:101A30000146314A12784A434FF0E0235A610022AE
:101A40009A611A46126942F001021A6100BF4FF012
:101A5000E022106900F001021AB100F48032002A7D
:101A6000F5D04FF0E022126922F001024FF0E0239E
:101A70001A6100229A6170470146204A12884A433F
:101A80004FF0E0235A6100229A611A46126942F02F
:101A900001021A6100BF4FF0E022106900F001025C
:101AA0001AB100F48032002AF5D04FF0E02212691A
:101AB00022F001024FF0E0231A6100229A61704780
:101AC00070B504464FF4077094FBF0F0C6B24FF4C3
:101AD000077094FBF0F100FB114085B205E04FF474
:101AE0000770FFF7C9FF701EC6B2002EF7D115B1FF
:101AF0002846FFF7C1FF70BD64000020660000208B
:101B0000014600BF704700BF4C4A128802F04002F5
:101B1000002AF9D0C2B2494B9A80704710B588B0FC
:101B200004460121084600F029FF0121102000F0A1
:101B30007FFF07220921424800F029FA07220A21E3
:101B40003F4800F024FA4FF4C060069002208DF860
:101B50001C008DF81D0000208DF81E0001208DF85E
:101B60001F0006A9364800F087F902940020ADF85E
:101B70000C00ADF80E00ADF81000ADF814000C200C
:101B8000ADF8120002A92D4801F0B3F801212B484D
:101B900001F037F9012240F22551284801F0E7F918
:101BA00025208DF8040003208DF805008DF806002F
:101BB00001208DF8070001A800F06DF808B010BDF5
:101BC00010B540F225511D4801F00CFA10B31B4826
:101BD00001F046F9C4B21B48008800F40040C8B9BF
:101BE0001848008800F4804060B10A2C03D000201F
:101BF0001449088020E01348008840F4004011494F
:101C0000088019E00D2C06D10E48008840F4804071
:101C10000C49088010E00B480088C0F30D000A4909
:101C20000C5408480088401C064908800846008873
:101C3000C72801DD0020088010BD00000010014011
:101C4000000002406C00002094E00020094880471A
:101C500009480047FEE7FEE7FEE7FEE7FEE7FEE78E
:101C6000FEE7FEE7FEE7FEE704480549054A064BA6
:101C7000704700006D06000889010008C0E10020DF
:101C8000C0E70020C0E30020C0E300203249014348
:101C9000324A1160704770B5002100230F22C478CA
:101CA0001CB32E4C246804F4E064C4F5E064C4F36F
:101CB0000721C1F10404E3B20A4144789C40E1B237
:101CC0008478144021430C07210E254C057861557A
:101CD000047804F01F050124AC4005786D11AD00B7
:101CE00005F1E025C5F8004109E0047804F01F057E
:101CF0000124AC401B4D0678761145F8264070BD96
:101D0000194A0A400243154B1B1F1A60704739B12C
:101D1000124A121D12680243104B1B1D1A6006E086
:101D20000E4A121D126882430C4B1B1D1A6070472D
:101D3000042808D14FF0E021096941F004014FF077
:101D4000E022116107E04FF0E021096921F0040170
:101D50004FF0E022116170470000FA050CED00E041
:101D600000E400E080E100E080FFFF1F10B50446C2
:101D70009848844208D10121084600F06AFE0021FB
:101D8000012000F066FE76E09348844208D10121EC
:101D9000022000F05EFE0021022000F05AFE6AE000
:101DA0008E48844208D10121042000F052FE002117
:101DB000042000F04EFE5EE08948844208D10121F3
:101DC000082000F046FE0021082000F042FE52E00C
:101DD0008448844208D10121102000F03AFE0021FD
:101DE000102000F036FE46E07F48844208D10121F1
:101DF000202000F02EFE0021202000F02AFE3AE0F4
:101E00007A48844208D10121402000F022FE0021BE
:101E1000402000F01EFE2EE07548844208D10121CA
:101E2000802000F016FE0021802000F012FE22E04B
:101E30007048844208D10121801500F00AFE00217B
:101E4000A01500F006FE16E06B48844208D101217F
:101E5000401500F0FEFD0021601500F0FAFD0AE0DB
:101E60006648844207D10121001500F0F2FD0021EF
:101E7000201500F0EEFD10BDF0B50A46002100234C
:101E8000002400BF3DE0012505FA01F3156805EACD
:101E900003049C4234D105684F000326BE40B5437D
:101EA000056015794E00B540066835430560157923
:101EB000012D02D01579022D16D185684F00032619
:101EC000BE40B543856055794E00B54086683543C0
:101ED0008560456801268E40B54345604568967922
:101EE0008E40B6B235434560C5684F000326BE40FC
:101EF000B543C560D5794E00B540C6683543C56069
:101F0000491C1029BFD3F0BD4FF6FF7101600021BD
:101F1000017141718171C171704708B54FF4803210
:101F20000092009A0A430092009AC261C161009A2D
:101F3000C261C2690092C269009208BD02460020D7
:101F400013690B400BB1012000E0002070470146EF
:101F5000086980B270470246002053690B400BB1FC
:101F6000012000E0002070470146486980B27047B8
:101F700001837047418370470AB1018300E04183C8
:101F800070474161704742694A4042617047F0B50D
:101F9000002300244D07ED0E02FA05F3CE1000F1E8
:101FA000200555F826504E07F70E0F26BE40B543C4
:101FB000CF1000F1200646F82750CE1000F1200582
:101FC00055F8265045EA0304CE1000F1200545F8E7
:101FD0002640F0BD0000024000040240000802401C
:101FE000000C0240001002400014024000180240A1
:101FF000001C024000200240002402400028024051
:1020000030B943F2DB028100A1F1C0410A6005E072
:1020100043F2D2028100A1F1C0410A606FF0704228
:10202000411C8900A1F1C0410A608100A1F1C041B9
:10203000C1F804217047D0E901121143C26811436D
:10204000026911434269114382691143C269114314
:10205000026A1143426A1143826A1143C26A114300
:10206000026B114302689200A2F1C04211608168C4
:1020700008290BD101688900A1F1C041096841F02C
:10208000400201688900A1F1C0410A60416B096802
:10209000426B526841EA0211426B926841EA0221A6
:1020A000426B928941EA0241426B128A41EA025133
:1020B000426B127D41EA0261426B926911430268F0
:1020C000521C9200A2F1C0421160C16AB1F5804F6A
:1020D0001BD1816B0968826B526841EA0211826BE5
:1020E000926841EA0221826B128A41EA0251826BB4
:1020F000127D41EA0261826B92691143026892008B
:10210000A2F1C042C2F8041107E06FF0704201680A
:102110008900A1F1C041C1F804217047002101608C
:102120000221416000218160C160016141618161E2
:10213000C16101624FF48051416249008162002116
:10214000C1620163F84941638163704751B1820004
:10215000A2F1C042126842F001038200A2F1C04223
:10216000136009E08200A2F1C0421268EF4B1A40EE
:102170008300A3F1C0431A60704710280AD11821C8
:102180004FF020421166402151664FF0FC319166BC
:10219000D16610E01821E64A116040214FF020423C
:1021A000C2F884104FF0FC31E14A083211604FF060
:1021B0002042C2F88C10704730B500210022002365
:1021C000446844F0080485682C43C5682C430569BD
:1021D0002C43456944EA4524856944EA4531C4698C
:1021E0002468C5696D6844EA0524C5692D8944EAF7
:1021F0000544C5692D7B44EA0562046A2468056AC2
:102200006D6844EA0524056A2D8944EA0544056A97
:102210002D7B44EA05630468102C05D14FF020445F
:102220002166A266E36608E0C14C21604FF02044BD
:10223000C4F88820BE4C0C34236030BD10210160EE
:10224000002141608160C160016141618161FC21C7
:10225000C2691160C2695160C2699160C269D1608E
:10226000026A1160026A5160026A9160026AD1607A
:10227000704799B1102808D14FF02042126E42F0F9
:1022800004024FF020431A661DE0A94A126842F08A
:1022900004024FF02043C3F8802014E0102809D135
:1022A0004FF02042126EA14BDB1E1A404FF020432C
:1022B0001A6608E09E4A12689C4BDB1E1A404FF0DB
:1022C0002043C3F88020704799B1102808D14FF0FF
:1022D0002042126E42F040024FF020431A661DE089
:1022E000934A126842F040024FF02043C3F8802026
:1022F00014E0102809D14FF02042126E8B4B3F3B67
:102300001A404FF020431A6608E0894A1268874B4A
:102310003F3B1A404FF02043C3F8802070470146EE
:102320000020102903D14FF02042506F02E0804A74
:1023300014321068704718207D4920310860002051
:102340000906C1F8A4004FF0FC3079492831086033
:10235000091D0860091D08607047016841F01001FF
:10236000426841EA4221826841EA4231704A2032A1
:102370001160C1680968C268526841EA0221C268F6
:10238000128941EA0241C268127B41EA0261684A4D
:1023900028321160016909680269526841EA022124
:1023A0000269128941EA02410269127B41EA026133
:1023B0005F4A2C321160416909684269526841EAFA
:1023C00002214269128941EA02414269127B41EAD3
:1023D00002614FF02042C2F8B01070470021016046
:1023E00041608160FC21C2681160C2685160C268AE
:1023F0009160C268D160026911600269516002692E
:1024000091600269D160426911604269516042691C
:1024100091604269D160704748B1454920310968EF
:1024200041F004014FF02042C2F8A01009E04049F9
:10243000203109683D4AD21E11404FF02042C2F8B7
:10244000A010704710B5F2B1102807D14FF020430B
:102450005B6E0B434FF02044636632E0B0F5807F43
:1024600008D1334B1B1D1B680B434FF02044C4F8AD
:10247000843026E02E4B24331B680B434FF020445E
:10248000C4F8A4301DE0102807D14FF020435B6E44
:102490008B434FF02044636613E0B0F5807F08D192
:1024A000234B1B1D1B688B434FF02044C4F8843022
:1024B00007E01F4B24331B688B434FF02044C4F8C4
:1024C000A43010BD10B5024600200023102A03D10D
:1024D0004FF02044636E09E0B2F5807F03D1144CC5
:1024E000241D236802E0124C2434236803EA01040B
:1024F0000CB1012000E0002010BD102807D14FF0E2
:102500002042526E8A434FF020435A6619E0B0F5DC
:10251000807F0FD1064A121D12688A434FF0204374
:10252000C3F884200DE0000008AD0008FEFF0F0096
:10253000800000A0234A12688A434FF02043C3F86A
:10254000A420704770B50246002000230024002517
:10255000102A03D14FF02046736E08E0B2F5807F59
:1025600003D1184E203E336801E0164E336803EA6B
:10257000010403EAD10514B10DB1012000E00020EF
:1025800070BD102808D14FF02042526E22EAD102CD
:102590004FF020435A6614E0B0F5807F09D1094A14
:1025A000203A126822EAD1024FF02043C3F8842077
:1025B00007E0044A126822EAD1024FF02043C3F830
:1025C000A4207047A40000A0F948006840F0010072
:1025D000F74908600020F64908310860F4480068AF
:1025E000F4490840F2490860F348091D0860F348BF
:1025F000EF4984310860F0481038091D0860EC4844
:10260000006820F48020EA4908600020E8490C3185
:102610000860E7498C31086070470021E44A921C49
:10262000117011460870704710B501460022002352
:1026300000204A11012A02D1DD4C236808E0022A59
:1026400003D1DB4C7034236802E0D94C7434236826
:1026500001F01F02012494401C400CB1012000E055
:10266000002010BD38B5002000900024002500BFD8
:102670003120FFF7D9FF05460098401C00900098D4
:10268000B0F5A04F01D0002DF2D03120FFF7CCFFE4
:1026900008B1012400E00024204638BD0146002096
:1026A000C34A106820F0F80040EAC100106070478B
:1026B000C349086070470021BD4A70321170117023
:1026C000012802D004280AD104E00121B84A70325E
:1026D000117005E00521B64A7032117000E000BFAC
:1026E00000BF7047B7490860704770B5049C41EA65
:1026F00082150126C6EB530645EA0645054345EA21
:102700000465AB4E361D356070BDAD490866704737
:10271000820142EA0172A64B84331A607047A849CD
:102720008866704710B5830143EA016343EA027388
:102730009F4C8834236010BDA14908677047A049A9
:10274000C864704702460020994B0833186820F08F
:10275000EC6042EA01031843954B08331860704758
:1027600002460020924B0833186820F0784042EA75
:10277000010318438E4B0833186070470146002050
:102780008B4A0832106820F003000843106070473D
:1027900087480830006800F00C00704701460020B0
:1027A000834A0832106820F0F00008431060704738
:1027B000014600207E4A0832106820F4E0500843A9
:1027C0001060704701460020794A0832106820F4F2
:1027D000604040EAC10010607047F0B5002100225F
:1027E0000024022500260223714F08373F6807F0B6
:1027F0000C0121B1042905D0082937D105E0724F19
:10280000076036E0714F076033E0694F3F1D3F6856
:10281000C7F38056664F3F1D3F6807F03F036EB118
:102820006A4FB7FBF3F7DFF888C10CF1040CDCF852
:1028300000C0CCF3881C07FB0CF40CE0624FB7FB24
:10284000F3F7DFF86CC10CF1040CDCF800C0CCF33A
:10285000881C07FB0CF4564F3F1D3F68C7F3014728
:102860007F1C7D00B4FBF5F7076002E0564F076060
:1028700000BF00BF4E4F08373F6807F0F00109095D
:10288000534F7A5C0768D7404760494F08373F6825
:1028900007F4E051890A4E4F7A5C4768D740876059
:1028A000434F08373F6807F46041490B484F7A5C53
:1028B0004768D740C760F0BD002100F44072B2F510
:1028C000407F0AD13A4A0832116821F4F811414A8E
:1028D00002401143364A08321160354A703212689C
:1028E000C0F30B031A43324B70331A6070473549FB
:1028F00044390860704733494039086070473649A9
:102900000860704701460020294A8C32106820F088
:102910001F004A1E1043264A8C3210607047014641
:102920000020234A8C32106820F4F8504A1E40EAF6
:1029300002201F4A8C3210607047014600201C4A5A
:102940008C32106820F44010084310607047014634
:102950000020174A8C32106820F4400008431060B1
:10296000704701460020124A8C32106820F4403033
:1029700008431060704719490860704739B10C4A24
:102980003032126802430A4B30331A6006E0084ABC
:10299000303212688243064B30331A607047F9B107
:1029A000034A343212680243014B34331A601CE08C
:1029B00000380240FFFFF6EA10300024003000200B
:1029C00000004742800E47420024F40000127A00C3
:1029D0006E000020FFFCFF0F5C014742E011474200
:1029E0008F4A126882438E4B1A60704739B18C4A05
:1029F000121D126802438A4B1B1D1A6006E0884AAA
:102A0000121D12688243864B1B1D1A60704739B134
:102A1000834A0C3212680243814B0C331A6006E081
:102A20007F4A0C32126882437D4B0C331A60704728
:102A300039B17B4A103212680243794B10331A6065
:102A400006E0774A103212688243754B10331A60E1
:102A5000704739B1724A243A12680243704B243BE2
:102A60001A6006E06E4A243A126882436C4B243B9B
:102A70001A60704739B16A4A203A12680243684BBB
:102A8000203B1A6006E0664A203A12688243644B93
:102A9000203B1A60704739B1614A1C3A1268024300
:102AA0005F4B1C3B1A6006E05D4A1C3A1268824389
:102AB0005B4B1C3B1A60704739B1594A143A126893
:102AC0000243574B143B1A6006E0554A143A126809
:102AD0008243534B143B1A60704739B1504A103A45
:102AE000126802434E4B103B1A6006E04C4A103A03
:102AF000126882434A4B103B1A60704739B1484A0A
:102B00001C3212680243464B1C331A6006E0444AEA
:102B10001C3212688243424B1C331A60704739B131
:102B20003F4A2032126802433D4B20331A6006E0D0
:102B30003B4A203212688243394B20331A60704777
:102B400039B1374A243212680243354B24331A60B4
:102B500006E0334A243212688243314B24331A6030
:102B6000704739B12E4A2C32126802432C4B2C3359
:102B70001A6006E02A4A2C3212688243284B2C3312
:102B80001A60704739B1264A303212680243244B2A
:102B900030331A6006E0224A303212688243204BFA
:102BA00030331A607047012808D11D493C3109684B
:102BB00041F008011A4A3C32116007E018493C31E3
:102BC000096821F00801164A3C321160704739B19A
:102BD000134A273A12780243114B273B1A7006E03A
:102BE0000F4A273A127882430D4B273B1A707047E1
:102BF0000B484030006840F080700949403108605F
:102C0000704701460020064A283A12680A400AB175
:102C1000012000E000207047014926390870704704
:102C20003438024010B50446FA48844208D10121E4
:102C30001020FFF752FF00211020FFF74EFF57E052
:102C4000F548844209D101214804FFF735FF0021EE
:102C50004FF40030FFF730FF4AE0F048844209D1DA
:102C600001218804FFF728FF00214FF48020FFF79F
:102C700023FF3DE0EA48844209D10121C804FFF75F
:102C80001BFF00214FF40020FFF716FF30E0E5485E
:102C9000844209D101210805FFF70EFF00214FF4FE
:102CA0008010FFF709FF23E0DF48844208D10121AB
:102CB0002020FFF712FF00212020FFF70EFF17E072
:102CC000DA48844209D101218807FFF7F5FE002187
:102CD0004FF08040FFF7F0FE0AE0D548844207D16C
:102CE00001214005FFF7E8FE00216005FFF7E4FE43
:102CF00010BD2DE9FF4705460E460024A14600BF42
:102D0000A046B08900B100BF2C8A24F44054F0885A
:102D100004432C82AC8941F20C608443B088318931
:102D20000843718908430443AC81AC8A24F440749D
:102D3000B0890443AC826846FFF74FFDB548854231
:102D400002D0B948854202D1DDF80C9001E0DDF8EF
:102D50000890A88900F4004040B109EBC90000EBDD
:102D6000091031684900B0FBF1F707E009EBC90031
:102D700000EB091031688900B0FBF1F76420B7FB64
:102D8000F0F004012009642101FB1078A88900F407
:102D9000004040B1322000EBC800B0FBF1F000F081
:102DA0000700044308E0322000EB08106421B0FB68
:102DB000F1F000F00F0004432C81BDE8FF874FF4D1
:102DC0001651016000218180C18001810C21418167
:102DD00000218181704710B502460020108A20F43E
:102DE00070600B884C8823438C882343CC88234312
:102DF0001843108210BD0021018041808180C18074
:102E0000704721B1828942F40052828104E08289B4
:102E10004DF6FF731A4082817047028B02F47F42A5
:102E20000283028B0A430283704721B1828942F4F4
:102E30000042828103E08289C2F30E0282817047E0
:102E400021B1828A42F40062828204E0828A4FF2D7
:102E5000FF731A4082827047C1F308028280704774
:102E600001468888C0F308007047028A4FF6F07365
:102E70001A400282028A0A430282704721B1828983
:102E800042F00202828104E082894FF6FD731A400B
:102E90008281704782894FF2FF731A408281828952
:102EA0000A4382817047028A4FF6DF731A4002821A
:102EB000028A0A430282704721B1028A42F48042A8
:102EC000028204E0028A4BF6FF731A4002827047C6
:102ED000818941F001018181704721B1828A42F0EC
:102EE0000802828204E0828A4FF6F7731A408282D7
:102EF0007047028BD2B20283028B42EA0122028324
:102F0000704721B1828A42F02002828204E0828AE4
:102F10004FF6DF731A408282704721B1828A42F0F5
:102F20001002828204E0828A4FF6EF731A40828296
:102F30007047828A4FF6FB731A408282828A0A4364
:102F40008282704721B1828A42F00202828204E0CA
:102F5000828A4FF6FD731A40828270471AB1838AC3
:102F60000B43838202E0838A8B4383827047F0B5F0
:102F70000346002400260025002040F66A17B942C7
:102F800000D100BF1846C1F3421401F01F0601270B
:102F900007FA06F5012C01D10C3004E0022C01D116
:102FA000103000E014301AB107682F43076002E0C8
:102FB0000768AF430760F0BD02460020B1F5007F0F
:102FC00000D100BF13880B400BB1012000E00020AE
:102FD000704701F40072B2F5007F00D100BFCA4310
:102FE0000280704770B502460024002300250020AF
:102FF00040F66A16B14200D100BFC1F3421501F09C
:103000001F03012606FA03F3012D13D196893340DD
:1030100017E000000010014000440040004800405C
:10302000004C004000500040001401400078004077
:10303000007C0040022D02D1168A334001E0968ABE
:1030400033400C12012606FA04F41688344013B1FA
:103050000CB1012000E0002070BD10B5002200235B
:1030600040F66A14A14200D100BF0A120124944024
:10307000A3B2DC43048010BD10B50446FE48844270
:1030800008D101210846FFF728FD00210120FFF7A4
:1030900024FD9DE0B4F1804F08D101210846FFF7DF
:1030A0000BFD00210120FFF707FD91E0F34884426A
:1030B00008D101210220FFF7FFFC00210220FFF7C9
:1030C000FBFC85E0EE48844208D101210420FFF793
:1030D000F3FC00210420FFF7EFFC79E0E94884428B
:1030E00008D101210820FFF7E7FC00210820FFF7A5
:1030F000E3FC6DE0E448844208D101211020FFF791
:10310000DBFC00211020FFF7D7FC61E0DF488442A0
:1031100008D101212020FFF7CFFC00212020FFF75C
:10312000CBFC55E0DA48844208D101210220FFF7A8
:10313000D4FC00210220FFF7D0FC49E0D5488442AE
:1031400009D101210804FFF7C8FC00214FF48030A9
:10315000FFF7C3FC3CE0D048844209D10121480478
:10316000FFF7BBFC00214FF40030FFF7B6FC2FE067
:10317000CA48844209D101218804FFF7AEFC00212E
:103180004FF48020FFF7A9FC22E0C548844208D113
:1031900001214020FFF790FC00214020FFF78CFC2C
:1031A00016E0C048844208D101218020FFF784FC4A
:1031B00000218020FFF780FC0AE0BB48844207D151
:1031C00001218015FFF778FC0021A015FFF774FCA2
:1031D00010BD00220288A84B98420ED0AC4B9842FA
:1031E0000BD0B0F1804F08D0A44B984205D0A44B2F
:1031F000984202D0A34B984204D14FF68F731A40E5
:103200004B881A43A04B984207D0A04B984204D059
:103210004FF6FF431A400B891A4302804B68C36282
:103220000B880385944B984202D0994B984201D168
:103230008B7A03860123838270474FF0FF31416010
:103240000021018001814180817270470185828265
:1032500070470A46002101884FF68F7319401143C9
:103260000180704741627047C16270470146486AF9
:1032700070470146088D704721B1028842F0020272
:10328000028004E002884FF6FD731A400280704706
:1032900021B1028842F00402028004E002884FF665
:1032A000FB731A400280704721B1028842F080020D
:1032B000028004E002884FF67F731A400280704754
:1032C00002884FF6F7731A40028002880A43028090
:1032D000704702884FF6FF431A40028002880A4373
:1032E0000280704721B1028842F00102028004E0AE
:1032F00002884FF6FE731A400280704770B50024B2
:1033000000220023058C4FF6FE7635400584028CA2
:103310008388048B4FF68F752C40B51E2C400D888A
:103320002C43751E2A408D892A434D882A43524DCD
:10333000A84202D0564DA84213D14FF6F7752A4045
:10334000CD892A434FF6FB752A408D882A434FF6D4
:10335000FF652B404FF6FF552B400D8A2B434D8ABE
:103360002B43838004838D684563028470BD70B5F0
:10337000002400220023058C4FF6EF7635400584AB
:10338000028C8388048B48F6FF752C404FF6FF456E
:103390002C400D884FF6FF7606EA05252C434FF6A4
:1033A000DF752A408D8906EA05152A434D8806EA0D
:1033B00005152A43304DA84202D0354DA8421DD1F3
:1033C0004FF67F752A40CD894FF6FF7606EA051540
:1033D0002A434FF6BF752A408D8806EA05152A4311
:1033E0004FF6FF352B404FF2FF752B400D8A06EA52
:1033F00085052B434D8A06EA85052B43838004838C
:103400008D688563028470BD70B50024002200239E
:10341000058C4FF6FF6635400584028C8388848BCB
:103420004FF68F752C404FF6FC752C400D882C43C1
:103430004FF6FF552A408D894FF6FF7606EA05259F
:103440002A434D8806EA05252A430B4DA84202D09F
:103450000F4DA84238D14FF2FF752A40CD894FF663
:10346000FF7606EA05252A434FF6FF352A408D8868
:1034700006EA05252A4319E0000001400004004047
:1034800000080040000C0040001000400014004004
:103490000004014000400140004401400048014058
:1034A00000180040001C0040002000404EF6FF7550
:1034B0002B404DF6FF752B400D8A06EA05152B4370
:1034C0004D8A06EA05152B43838084838D68C56386
:1034D000028470BD70B5002200230024058C4EF6D6
:1034E000FF7635400584038C8488828B48F6FF750F
:1034F0002A404FF6FF452A400D884FF6FF7606EA30
:1035000005252A434DF6FF752B408D8906EA0535C2
:103510002B434D8806EA05352B43FE4DA84202D0C9
:10352000FD4DA84208D14BF6FF752C400D8A4FF691
:10353000FF7606EA85152C43848082838D680564B6
:10354000038470BD00210180418081808160818180
:10355000C18101824182704770B50346002000247A
:103560001846183001258D40ACB21D8CA5431D8432
:1035700009B108290AD100EB610005684FF68F7682
:10358000354005600568154305600FE00D1FC5F364
:103590004E052844056848F6FF7635400560056805
:1035A0004FF6FF7606EA02263543056070BD41639B
:1035B000704781637047C1637047016470470A4672
:1035C0000021018B4FF68F7319401143018370471F
:1035D0000A460021018B48F6FF7319404FF6FF732E
:1035E00003EA02231943018370470A460021818BB5
:1035F0004FF68F7319401143818370470A460021AB
:10360000818B48F6FF7319404FF6FF7303EA0223DC
:103610001943818370470A460021018B4FF6F773E7
:1036200019401143018370470A460021018B4FF274
:10363000FF7319404FF6FF7303EA02231943018316
:1036400070470A460021818B4FF6F77319401143EA
:10365000818370470A460021818B4FF2FF73194026
:103660004FF6FF7303EA02231943818370470A462A
:103670000021018B4FF6FB73194011430183704702
:103680000A460021018B4FF6FF3319404FF6FF73B6
:1036900003EA02231943018370470A460021818B04
:1036A0004FF6FB7319401143818370470A4600218E
:1036B000818B4FF6FF3319404FF6FF7303EA022365
:1036C0001943818370470A460021018B4FF67F73AF
:1036D00019401143018370470A460021018BC1F351
:1036E0000E014FF6FF7303EA02231943018370476B
:1036F0000A460021818B4FF67F7319401143818365
:1037000070470A460021818BC1F30E014FF6FF730B
:1037100003EA02231943818370470A460021018C82
:103720004FF6FD7319401143018470470A4600218A
:10373000018C4FF6F77319401143018470470A4614
:103740000021018C4FF6DF7319404FF6FF7303EA37
:1037500002131943018470470A460021018C4FF679
:103760007F7319404FF6FF7303EA02131943018474
:1037700070470A460021018C4FF6FF5319404FF65F
:10378000FF7303EA02231943018470470A460021AC
:10379000018C4FF2FF7319404FF6FF7303EA0223C7
:1037A0001943018470470A460021018C4DF6FF73CE
:1037B00019404FF6FF7303EA02331943018470473F
:1037C00030B5002301248C40A3B2048C9C430484B4
:1037D000048C02FA01F5ADB22C43048430BD30B53F
:1037E000002304248C40A3B2048C9C430484048CE6
:1037F00002FA01F5ADB22C43048430BD828B4FF246
:10380000FF331A408283828B4FF6FF7303EA012352
:103810001A4382837047F0B50C46154600210022FA
:103820000026078C4EF6FF7C07EA0C070784818B85
:10383000028C4FF6FF7707EA043640F6FF4739401F
:103840004FF6FF7707EA052739434FF6FF7707EA78
:103850000337394345F6FF773A4046F480573A43F9
:1038600081830284F0BD828B4FF6F3731A4082830A
:10387000828B0A4382837047F0B50C4615460021BF
:1038800000220026078C4FF6FF6C07EA0C0707841E
:10389000818B028C4FF6FF7707EA04264FF60C77F0
:1038A00039404FF6FF7707EA03172F4339434FF2AA
:1038B000FF573A4046F480773A4381830284F0BD53
:1038C000028B4FF2FF331A400283028B4FF6FF73D5
:1038D00003EA01231A4302837047F0B50C461546EC
:1038E000002100220026078C4FF6EF7C07EA0C0728
:1038F0000784018B028C4FF6FF7707EA041640F627
:10390000FF4739404FF6FF7707EA033739434FF651
:10391000FF7703E0000001400004014007EA0527AB
:1039200039434FF65F773A4046F010073A43018338
:103930000284F0BD028B4FF6F3731A400283028BB0
:103940000A4302837047F0B50C4615460021002259
:10395000068C4FF6FE773E400684018B028C4FF6B4
:103960000C7631407E1C06EA03162E4331434FF697
:10397000F576324044F00106324301830284F0BD03
:1039800070B505460C46208850B92389A288618805
:103990002846FFF7D8FFE1882846FFF7CBFF25E050
:1039A000208804280AD12389A28861882846FFF745
:1039B00094FFE1882846FFF783FF17E02088082856
:1039C0000AD12389A28861882846FFF755FFE1883C
:1039D0002846FFF748FF09E02389A2886188284626
:1039E000FFF719FFE1882846FFF708FF70BD0021A7
:1039F00001804180012181800021C18001817047C7
:103A00002DE9F04105460C4600260127608808B9DB
:103A1000022600E00026A088012801D1022700E04C
:103A200001272088A0B92389A28861882846FFF74A
:103A30008AFFE1882846FFF77DFF23893A46314611
:103A40002846FFF74AFFE1882846FFF739FF13E0D1
:103A50002389A28861882846FFF73FFFE18828462E
:103A6000FFF72EFF23893A4631462846FFF76BFFC2
:103A7000E1882846FFF75EFFBDE8F0810146486B0C
:103A800070470146886B70470146C86B7047014616
:103A9000086C70470A884B881A438B881A43CB8876
:103AA0001A430B891A434B891A438B891A43A0F88E
:103AB000442070470021018041808180C1800181C4
:103AC00041818181704731B1B0F8442042F4004215
:103AD000A0F8442005E0B0F84420C2F30E02A0F89C
:103AE0004420704721B1828842F00402828004E0C1
:103AF00082884FF6FB731A408280704721B182881A
:103B000042F00102828004E082884FF6FE731A4080
:103B1000828070471AB183890B43838102E08389D5
:103B20008B43838170478182704702460020138A4D
:103B30000B400BB1012000E000207047CA43028215
:103B4000704730B50246002000230024158A05EA9C
:103B50000103958905EA010413B10CB1012000E0CD
:103B6000002030BDCA430282704741EA0203A0F838
:103B7000483070471AB183890B43838102E08389FF
:103B80008B438381704721B1828842F00802828092
:103B900004E082884FF6F7731A40828070470189EB
:103BA0004FF6F8721140018170470A4600210189E1
:103BB0004FF68F73194011430181704730B50446A9
:103BC0000D4629462046FFF7F0FF208940F0070008
:103BD000208130BD2DE9F04104460D4616461F46B2
:103BE000602D06D13B46012231462046FFF775FE87
:103BF00005E03B46012231462046FFF7A4FE294658
:103C00002046FFF7D2FF208940F007002081BDE861
:103C1000F08130B50C4600210189C9B24FF6FF751D
:103C200005EA0325154325432943018130BD2DE9CC
:103C3000F04105460E4617469846002443463A464C
:103C400031462846FFF7E5FF2C894FF6F87004400F
:103C500044F007044FF68F70044044F070042C8148
:103C6000BDE8F081F0B504460D4616461F463B46BA
:103C7000324629462046FFF7CCFF208940F4804099
:103C80002081F0BD82884FF68F731A40828082882F
:103C90000A438280704702894FF6F8731A40028106
:103CA00002890A430281704702894FF67F731A40E6
:103CB000028102890A4302817047F0B50C4615461D
:103CC0001E460021002200230189028B038C4FF63F
:103CD000F877394021434FF6FC473A4040F201174C
:103CE0003A434FF6DD773B404FF6FF7707EA06177A
:103CF0002F433B43018102830384F0BD21B18288BD
:103D000042F08002828004E082884FF67F731A407E
:103D100082807047A0F850107047000010B5012154
:103D20000802FEF7DAFE00214FF48070FEF7D5FEA0
:103D300010BD30B50246002000235068F84C2040EA
:103D40000D790C6844EA0524204350609068F54CD6
:103D50002040D1E903542C438D682C434D7944EA2B
:103D6000450420439060D06A20F470000C7D641EEE
:103D7000E4B2234340EA0350D06230BD0021016029
:103D8000017141718160C16001610121017570475C
:103D90000021E54A1168E54A1140D0E900231A43A1
:103DA00083681A43C3681A431143E14AC2F80413F3
:103DB00070470021016041608160C160704721B19E
:103DC000826842F00102826003E0826822F0010210
:103DD000826070470A4600214168D64B1940114362
:103DE000416070474162826270470A460021416823
:103DF00021F01F0111434160704738B1CA49096879
:103E000041F40001CA4AC2F8041306E0C649096831
:103E100021F40001C64AC2F80413704738B1C24900
:103E2000096841F48001C24AC2F8041306E0BE49A1
:103E3000096821F48001BE4AC2F804137047F0B546
:103E400004460D4600200021092D11DDE068A5F192
:103E50000A0606EB4607072606FA07F18843A5F18E
:103E60000A0606EB460603FA06F10843E0600CE09A
:103E7000206905EB4507072606FA07F1884305EB9D
:103E8000450603FA06F108432061072A0FDA606B42
:103E9000561E06EB86071F2606FA07F18843561EB4
:103EA00006EB860605FA06F10843606322E00D2A58
:103EB0000FDA206BD61F06EB86071F2606FA07F1DE
:103EC0008843D61F06EB860605FA06F108432063F1
:103ED00010E0E06AA2F10D0606EB86071F2606FA3F
:103EE00007F18843A2F10D0606EB860605FA06F1F6
:103EF0000843E062F0BD816841F080418160704715
:103F0000014600208A6802F080420AB1012000E0E8
:103F10000020704721B1826842F48062826003E031
:103F2000826822F480628260704721B1826842F028
:103F30000202826003E0826822F00202826070471F
:103F400010B50A4600210023416821F46041531E48
:103F500041EA4331416010BD21B1426842F4006240
:103F6000426003E0426822F400624260704701460A
:103F7000C86C80B270476C48001D0068704721B162
:103F8000826842F48072826003E0826822F4807268
:103F90008260704721B1826842F40072826003E05F
:103FA000826822F400728260704738B15E49096805
:103FB00041F400515E4AC2F8041306E05A49096808
:103FC00021F400515A4AC2F804137047F0B5044670
:103FD0001546002000220026092911DDE068A1F124
:103FE0000A0707EB470C072707FA0CF29043A1F1E9
:103FF0000A0707EB470703FA07F21043E0600CE0FB
:10400000206901EB410C072707FA0CF2904301EB02
:10401000410703FA07F210432061A06BC0F3015679
:10402000EF1C06F1010CA7EB0C0707EB870C1F2711
:1040300007FA0CF29043EF1C06F1010CA7EB0C07FA
:1040400007EB870701FA07F21043A063F0BD10B534
:104050000A4600210023816B21F44011531E41EADE
:104060000351816310BD08B5002300930090009BAD
:104070000B440093009B1A6008BD0A46002181682A
:1040800021F470211143816070470A460021816844
:1040900021F44011114381607047816841F480012F
:1040A00081607047014600208A6802F480020AB1EC
:1040B000012000E00020704721B1426842F4806294
:1040C000426003E0426822F480624260704721B19E
:1040D000426842F48052426003E0426822F4805217
:1040E0004260704708B5024600200090009201F13E
:1040F0002800009B184400900098006880B208BD1A
:1041000010B50B460021D9B2012404FA01F11AB10D
:1041100044680C43446002E044688C43446010BD32
:10412000FFFEFFFCFDF7FFC004230140E030FCFF71
:1041300000200140FFFD3FFF0246002013680B40B6
:104140000BB1012000E000207047CA4302607047B5
:1041500070B502460020002300240B12556801268A
:104160008E4005EA060415681D4015B10CB101200A
:1041700000E0002070BD00220A12D34303607047A4
:10418000016821F00101016000210160416081604E
:10419000C160016121214161DB49884204D13D2197
:1041A000D94A103A91608CE0D7491831884205D13C
:1041B0004FF47461D44A103A916082E0D2493031B0
:1041C000884205D14FF47411CF4A103A916078E0DB
:1041D000CD494831884205D14FF07461CA4A103A3E
:1041E00091606EE0C8496031884204D1C749C64A2F
:1041F000103AD16065E0C4497831884204D1C4499D
:10420000C14A103AD1605CE0BF499031884204D184
:10421000C049BD4A103AD16053E0BB49A831884239
:1042200005D14FF03D51B84A103AD16049E0BA4942
:10423000884204D13D21B84A083A116041E0B649AC
:104240001831884205D14FF47461B34A083A1160BD
:1042500037E0B1493031884205D14FF47411AE4A8C
:10426000083A11602DE0AC494831884205D14FF041
:104270007461A94A083A116023E0A7496031884275
:1042800004D1A249A44A121F11601AE0A249783150
:10429000884204D19E49A04A121F116011E09E4934
:1042A0009031884204D19B499B4A121F116008E05B
:1042B0009949A831884204D14FF03D51964A121FC6
:1042C0001160704710B500220268944B1A40CC6808
:1042D0000B6823434C6923438C692343CC692343F4
:1042E0000C6A23434C6A23438C6A23434C6B23435D
:1042F0008C6B23431A430260426922F00702D1E922
:104300000B3423431A4342610B6943604B6883605B
:104310008B68C36010BD0021016041608160C16095
:10432000016141618161C161016241628162C16279
:10433000016341638163704721B1026842F0010269
:10434000026003E0026822F001020260704721B1BE
:10435000026842F40042026003E0026822F4004274
:104360000260704721B1026842F02002026003E05F
:10437000026822F0200202607047416070470146E7
:10438000486880B2704722B1036843F40023036099
:1043900003E0036823F4002303600161704721B147
:1043A000026842F48022026003E0026822F4802264
:1043B000026070470AB1016100E0C16070470146C8
:1043C00000200A6802F400220AB1012000E0002067
:1043D0007047014600200A6802F001020AB101207C
:1043E00000E000207047014600204A6902F03800D2
:1043F000704730B503460A4600200024464DAB42C4
:1044000002D24149103901E04349103902F0005508
:104410000DB14C6800E00C68414D2C4004EA0205E7
:104420000DB1012000E0002030BD02463A4B9A4217
:1044300002D23548103801E03748103801F00053F7
:104440001BB1374B0B40C36002E0354B0B40836020
:10445000704710B501F080034BB122B1436943F0BE
:104460008003436103E0436923F0800343618029B3
:104470000BD02AB1036801F01E042343036004E05B
:10448000036801F01E04A343036010BD70B502462B
:10449000002000240025204EB24202D21A4B103BCD
:1044A00001E01D4B103B1F4E0E4036B11E2606EAA2
:1044B000D124166806EA040502E0566906F0800574
:1044C00001F000560EB15C6800E01C68144E3440E8
:1044D00004EA010616B10DB1012000E0002070BD14
:1044E00002460D4B9A4202D20748103801E00A48B2
:1044F000103801F000531BB1094B0B40C36002E0C0
:10450000074B0B4083607047106002403D00002065
:10451000400F002000003D20106402403F801CF04E
:104520007D0F7D0F3C0F3C0F9FED3A0A5FEA920C26
:1045300053D000BFF0EC010A0B1DB0EC011A60EE85
:10454000A00A41EE010AF5EEC00AF1EE10FAC6BF6C
:10455000B1EEE01A81ED001A81ED000AF0EC010ADB
:10456000191DB0EC011A60EEA00A41EE010AF5EE49
:10457000C00AF1EE10FAC6BFB1EEE01A83ED001AE0
:1045800083ED000AF0EC010A0B1DB0EC011A60EE9D
:10459000A00A41EE010AF5EEC00AF1EE10FAC6BF1C
:1045A000B1EEE01A81ED001A81ED000AF0EC010A8B
:1045B000191DB0EC011A60EEA00A41EE010AF5EEF9
:1045C000C00AF1EE10FAC6BFB1EEE01A83ED001A90
:1045D00083ED000ABCF1010CACD112F0030208BF5C
:1045E000704700BFF0EC010A0B46B0EC011A091D40
:1045F00060EEA00A41EE010AF5EEC00AF1EE10FAF3
:10460000C6BFB1EEE01A83ED001A83ED000A521E18
:10461000E8D17047000000002DE9F04F8D082DED26
:10462000048B82B00026AC463446019506EB0C099B
:1046300009EB0C0A0AEB0C0800EBC60700EBC909F2
:1046400000EBCA0A00EBC80897ED003AD9ED003A32
:10465000DAED006A98ED006A97ED010ADAED014A99
:1046600033EE265A73EE860A99ED014AD8ED015AC7
:1046700030EE241A4FEA440B02EBCB0E70EE644A84
:1046800074EE251A35EE200A9EED002ADEED012A91
:1046900087ED000A31EE210A73EEC63A34EE656A00
:1046A00087ED010A35EE600A33EE663A71EE610A73
:1046B00002EBC40774EEE35A33EE064A97ED005A54
:1046C00073EEA41AD7ED014A33EE461A24EE056ABA
:1046D0000BEB040725EE855A02EBC70760EE026A72
:1046E00065EEA45A24EE244A97ED003AD7ED013A3C
:1046F00060EEA24A20EE822A21EE037A20EE220A00
:1047000061EEA30A21EE833A61EE231A76EEA42A23
:1047100032EE400A36EE251A75EE443AC9ED002A0B
:1047200077EE200A89ED010A73EE611A8AED001A0C
:10473000CAED013AC8ED000A761CC8ED011A1C4406
:104740006D1E7FF473AF4FF6FF7404EA830B019B79
:104750000093042B7DD966464FEA9C0C4FF000086D
:10476000C146ACF1010E00BF4FEA480303EB080459
:1047700002EBC30302EBC80593ED003AD3ED014A07
:1047800002EBC40395ED005AD5ED015A93ED006A92
:1047900093ED014AD8444B4603EB0C0404EB0C07A1
:1047A00007EB0C0A00EBC30500EBC70700EBC404E2
:1047B00000EBCA0AD5ED003A97ED007AD4ED008AF5
:1047C0009AED008A95ED010AD4ED010AD7ED017A40
:1047D000DAED011A33EEC72A70EE676A70EEE12A4D
:1047E00033EE877A78EE883A30EE270A38EEC81A28
:1047F00070EEA11A72EE227A32EE622A77EE232A46
:1048000070EE618A36EEC18A30EE210A77EE630AD5
:1048100031EE261AC5ED002A85ED010A28EE050ABB
:1048200067EE856A28EE258A20EE837A20EEA49A28
:1048300068EE831A62EE062A61EE063A62EE040A18
:1048400067EEA57A68EEA48A21EE041A36EE882A6D
:1048500000E027E077EE286A71EEC91A30EE670AA9
:10486000C4ED006A32EE811AC4ED011A73EEE00A5B
:1048700087ED002A87ED010A8AED001A3344CAED5C
:10488000010A8B4288D309F10109F1457FF66CAF2B
:104890004FF6FF7303EA8B0B009B9B080093042BDE
:1048A0003FF659AFDDF8041090ED000AD0ED042A70
:1048B00090ED025A90ED031AD0ED064A90ED073ABA
:1048C00030EE222AD0ED011AD0ED050A75EE243A19
:1048D00031EE034A30EE620A71EEA02A31EE431A3D
:1048E00032EE233A71EEE00A75EE641A72EE844AF3
:1048F00032EE632A72EEC43A80ED003A70EE012A7D
:10490000C0ED014A30EEE14A80ED022A30EE410A64
:10491000C0ED033A71EEA00AC0ED042A80ED054A0D
:1049200080ED060AC0ED070A2030491EBCD102B056
:10493000BDEC048BBDE8F08F2DE9F04F4FEA910AF2
:104940002DED048B82B00024D446A046CDF804A0FF
:1049500004EB0C0505EB0C0606EB0C0900EBC40799
:1049600000EBC60600EBC50500EBC909D7ED011A3F
:10497000D6ED012A95ED006AD9ED006AD7ED005A0F
:1049800096ED007AD5ED010A99ED011A36EE262A48
:1049900071EEA23A35EE873A71EEE21A30EE815AA4
:1049A00070EEC12A4FEA480B02EBCB0E73EE020AFF
:1049B0009EED004ADEED014AC7ED000A73EE850A5E
:1049C00036EE666A75EEC75AC7ED010A33EE422A23
:1049D00002EBC80731EE861A33EEC53A71EEC61AFD
:1049E00097ED006A97ED015A75EEE20A0BEB0807A6
:1049F00002EBC70775EEA22AD7ED005AD7ED013AB0
:104A000060EE866A22EE047A62EEA57A23EE044A0C
:104A100021EE066A61EEA55A60EE850A23EE243A7D
:104A200022EE242A21EE051A61EEA31A62EEA32AD1
:104A300076EE203A37EE433A74EE020A36EEC11AA9
:104A400085ED003A77EEE11AC5ED010A35EEA22AAE
:104A500086ED001AC6ED013AC9ED001A641C89ED15
:104A6000012A9844BAF1010A7FF472AF4FF6FF743D
:104A700004EA830B019B0093042B7CD966464FEA22
:104A80009C0C4FF00008C146ACF1010E4FEA480300
:104A900003EB080402EBC30302EBC805D3ED003AB5
:104AA00093ED017A02EBC403D5ED006AD5ED015A0E
:104AB000D3ED004A93ED013AD8444B4603EB0C0486
:104AC00004EB0C0707EB0C0A00EBC30500EBC70770
:104AD00000EBC40400EBCA0A95ED012A97ED018AA8
:104AE00095ED001AD4ED008AD4ED017A97ED009A85
:104AF000DAED001ADAED010A32EE485A71EE492A6F
:104B000038EEE14A32EE082A37EEA08A37EEE06A44
:104B100078EEA11A31EE091A75EE048A72EEC67AA1
:104B200072EE862A71EE610A31EE211A35EE444AA0
:104B300032EE489A85ED001A32EE081A28EEA66A7F
:104B400027EEA65A68EEA58A85ED011A20EEA31A73
:104B500069EE231A22EEA42A24EE248A67EEA57AAF
:104B600029EE079A60EE870A24EE034A62EE832A52
:104B700035EE685A00E027E036EE276A71EE497A92
:104B800031EEA01A72EE440AC4ED007A84ED011AE7
:104B900078EE221A87ED005A87ED016ACAED000A05
:104BA0003344CAED011A8B4288D309F10109F1455A
:104BB0007FF66CAF4FF6FF7303EA8B0B009B9B08ED
:104BC0000093042B3FF65AAFDDF8041090ED003A45
:104BD000D0ED044AD0ED032A90ED071A90ED024A79
:104BE000D0ED061AD0ED013AD0ED050A33EE242AB5
:104BF00072EE815A33EE643A34EE215A73EEA04AD3
:104C000073EEE03A32EEC11A74EE610A32EE454AB2
:104C100072EE052A74EEA51A34EEE55A73EE414A97
:104C200033EEA02A33EE011A33EEE03A62EE805AF8
:104C300061EE800A64EE003A65EE002AC0ED005A8B
:104C400064EE801AC0ED010A22EE002AC0ED023A9D
:104C500021EE004AC0ED032A23EE001AC0ED041A2B
:104C600080ED052A80ED064A80ED071A2030491EA6
:104C7000ACD102B0BDEC048BBDE8F08F70B504463A
:104C80000D4680782188A389626801280ED02846C5
:104C9000FFF7C2FCE078012818BF70BDE2892188C7
:104CA0002846A368BDE8704000F066B894ED040A99
:104CB0002846FFF741FEEDE710B40180234C446025
:104CC00082704FF0000CC370B1F5807F20D004DCFF
:104CD00010292FD0402906D122E0B1F5806F0FD0E6
:104CE000B1F5805F04D04FF0FF3C10BC60467047C8
:104CF00001218181C18116499FED160A816016E06C
:104D000004218181C18114499FED140A81600EE064
:104D100010218181C18112499FED120A816006E054
:104D200040218181C18110499FED100A816080ED91
:104D3000040ADAE74FF480718181C1810C499FED4B
:104D40000D0A816080ED040ACFE7000024B5000859
:104D500024AD0008000080392AAD00080000803A28
:104D600042AD00080000803BA2AD00080000803C7E
:104D700022AF00080000803D2DE9F0014E0801241B
:104D80004FF0000C04EB51076146A6F102082CE03D
:104D900061452AD200EBCC0500EBC104D5ED000A39
:104DA00094ED000AC4ED000A85ED000AD5ED010A74
:104DB00094ED010AC4ED010A85ED010ACC1900EB5E
:104DC000C4050CEB070400EBC40495ED000AD4ED18
:104DD000000AC5ED000A84ED000AD4ED010A95ED44
:104DE000010AC5ED010A84ED010A00EBC104B444D7
:104DF00000EBCC0C94ED020ADCED000A891CC4ED3A
:104E0000020A8CED000ADCED010A94ED030AC4ED00
:104E1000030A8CED010AB3F800C089B203EB420328
:104E20004145B5D9BDE8F00170472DE9F0070125EE
:104E30004C0805EB51064FF0000C651E6146002D35
:104E400088BFA8462ED8BDE8F0077047614529D233
:104E500050F8315050F83C7040F8317040F83C50F8
:104E600000EBC10700EBCC097D68D9F804A0C7F8B6
:104E700004A0C9F804508D190CEB060750F83590C2
:104E800050F837A040F835A040F8379000EBC50542
:104E900000EBC707D5F80490D7F804A0C5F804A024
:104EA000C7F8049000EBC105A444AF6850F83C90EB
:104EB000C5F8089040F83C7000EBCC0CEF68DCF8CB
:104EC0000490C5F80C90CCF80470B3F800C0891CAD
:104ED00003EB42034145B9D3BDE8F00770472DE924
:104EE000F00F01244D084FF0000C04EB5107012D89
:104EF0009CBFBDE8F00F7047014600EB8704002619
:104F00004FEA550815E000BFBCEB460F11D950F829
:104F10002CA0D1F80090C1F800A040F82C900CEB28
:104F20000709D4F800A050F829B0C4F800B040F840
:104F300029A0AC44D1F8049050F82CA0C1F804A0EA
:104F400040F82C90B3F800C008310834761C03EB0D
:104F50004203B8F10108D7D1BDE8F00F70477047A0
:104F60000FB4044910B503AA029800F0A5FB10BCC9
:104F70005DF814FB680000200FB41CB5074B06AAAF
:104F80007B4469460090059800F07DFB002069464F
:104F900000F08CFB1CBC5DF814FB0000290700002E
:104FA0002DE9F0410646002410687529314616A502
:104FB00010D0AFF30080002802DA404213A507E0CA
:104FC00031688A0701D512A502E0490704D511A569
:104FD000012401E0AFF3008000210A2206F124073A
:104FE00009E0B0FBF2FCB0FBF2F302FB1C00303036
:104FF00078541846491C0028F3D123462A463046E7
:10500000BDE8F04100F0D4B8000000002D00000021
:105010002B0000002000000070B504460D4621461C
:105020001068AFF300802188090502D50F4A7A4441
:1050300002E00E4A7A440E32002104F1240305E016
:1050400000F00F060009965D5E54491C0028F7D158
:1050500020780023000704D5702D02D009B1022367
:1050600011322046BDE8704000F0A2B8F2E4000022
:105070002DE9F05F894604464FF0000ADFF824B1BD
:10508000FB44C0F820A02046E168884700287DD076
:10509000252806D0D4E901219047206A401C2062CF
:1050A000F1E700255F462046E1688847202806464C
:1050B00007DB312E05D2B81910F8200C08B10543D2
:1050C000F1E7A80701D525F00405C4F81CA00027C6
:1050D000C4F818A02A2E09D0304601F03EF838B3A3
:1050E00004EB8708303EC8F8186019E059F8041B33
:1050F000204604EB87029161E1688847012F06464C
:1051000018D1E069002820DA25F020051DE0D8F844
:10511000180000EB800006EB40003038C8F818009B
:105120002046E1688847064601F017F80028EED1CE
:10513000012F0AD02E2E08D12046E16888477F1C17
:105140000646022F45F02005C4DBA069002803DADB
:10515000404245F00105A061E80701D025F01005A7
:10516000A6B1A6F14100192802D8203645F4006501
:105170004A463146204625604D46FBF73FF860B170
:10518000012807D0ED1D25F0070000E007E000F141
:10519000080978E705F1040975E730467AE7206ADF
:1051A000BDE8F09FC8E40000704770477047704743
:1051B0002DE9F0470D4699469246044600F1240831
:1051C0000168880604D5E06921F01001216000E043
:1051D0000120A84201DD471B00E00027A1697A19E0
:1051E00002EB0900081AA0612078C00602D420460C
:1051F000AFF30080002608E0D4E901211AF8060088
:105200009047206A401C761C20624E45F4DB2078D3
:10521000C0060AD52046AFF3008006E0D4E901219C
:1052200030209047206A401C2062381EA7F10107F9
:10523000F4DC07E0D4E9012118F805009047206A62
:10524000401C2062281EA5F10105F3DC2046AFF3C7
:1052500000802078000602D50220BDE8F0870120FA
:10526000FBE770472DE9FF4F0C461E464FF0FF3716
:105270008BB0D2E90001DDF860800A908A46C1F364
:105280000A5505B93D46002108464FF00000BAF125
:10529000000F00F4400005DA00EB80004FF44001FD
:1052A00001EA50004FEA9059B9F1010F00DDB9460B
:1052B0000A9850EA4A000ED044F61050A5F2FF3585
:1052C00045432F14B8F1000F1ED07542291E1EDD74
:1052D000C9F100021CE0B8F1010F4FF0000001D04D
:1052E000302103E0F24305E02154401CB042FBDBD7
:1052F00030460022002121540B99C1F80880C1E9F1
:1053000000200FB0BDE8F08FBD1B6D1CDEE74A46E4
:1053100000DA694206A800F06BFA06AB93E80700D2
:1053200003AB83E8070050460A9900F043FB8DE881
:105330000700A0F500501F3800900398002D09DDEC
:1053400042F21F014A46084403A90390684600F050
:10535000A2FD08E0A0F500504A461F3803A90390BB
:10536000684600F0ACFD8DE807000004000C03D097
:105370004FF0FF30410800E01046B8F1000F03D0B5
:105380000022009215461EE0751E05D400F0AAF911
:10539000303262556D1EF9D5B3460122084302D062
:1053A00000227F1C04E02078302801D100227F1EDB
:1053B000002A099786D01DE0112D07DA00F092F936
:1053C000303262556D1C50EA0102F5D1084302D01B
:1053D0000098C8B10EE00021681E05E0235C625C05
:1053E00063542254401E491C8142F7DBAB46A81B84
:1053F000401E0990002004F80B000B98099AC0F891
:105400000880C0E9002B7CE711264FF0000859E71F
:105410002DE9F04F88460446D21D22F0070191B0D5
:10542000D1E90001CDE90A0100F07FFE02460B98A8
:10543000C00F01D02D2007E02068810701D52B2067
:1054400002E0202101EAC000032A099001D0072AC6
:1054500005DB03464146204600F08AF90BE120783F
:10546000800601D5E06900E00620B8F1650F8146AD
:1054700006D0B8F1660F18D0B8F1670F70D131E0DF
:105480000020B9F1110F009001DB112301E009F1B7
:1054900001030AAA01A90CA8FFF7E4FEDDE90C70DC
:1054A000002609F10105834647E001204B460090A4
:1054B0004FF000470AAA01A90CA8FFF7D3FEDDE9C7
:1054C0000DB00C995D46002610B909F101000D18C8
:1054D000B9EB050003D4C0F1FF3609F10105A5EBD6
:1054E00009002BE0B9F1010F01DA4FF001090020AA
:1054F000B9F1110F0090484601DD112300E0034689
:105500000AAA01A90CA8FFF7ADFEDDE90C704D4613
:1055100000268346207800070AD4AB4500DA5D46B2
:1055200001A8012D04DD411911F8011C302907D013
:105530004F4502DA17F1040F04DA012082460FE02A
:105540006D1EEEE7002F02DCED1B3E4403E0781CED
:10555000A84200DD7D1CB81B00F1010A4FF0004796
:105560002078000703D4AA4501DB4FF0FF3A002161
:10557000B7F1004F0DF143088DF8431024D00220FD
:105580002B23002F01DA7F422D230A21021EA0F1D6
:10559000010000DC5FB197FBF1FC97FBF1F201FB2E
:1055A0001C7C17460CF1300C08F801CDEEE7A8F191
:1055B000010003702188090501D5452100E065211E
:1055C000A0F1010800F8011C09980FA9A1EB080738
:1055D000FF1D00B10120411901EBEA70A1693844B7
:1055E000081A401EA0612078C00602D42046AFF3FE
:1055F0000080099828B1D4E901219047206A401C15
:1056000020622078C00622D52046AFF300801EE03D
:10561000002E04DBB34502DD01A8805D00E03020F0
:10562000D4E901219047206A401C2062761CAAF12F
:1056300001005FEA000A0AD100F050F8C068016872
:10564000405CD4E901219047206A401C2062281E5A
:10565000A5F10105DCDC07E0D4E9012118F8010B14
:105660009047206A401C2062381EA7F10107F3DC36
:105670002046AFF30080032011B043E601694A1CC5
:1056800002610878704700B58FB0CDE90131002183
:10569000059105497944CDE9031011466846FFF7A5
:1056A000E7FC0FB000BD0000E5FFFFFF0A6802F84D
:1056B000010B0A6070470000074B70B50D467B4434
:1056C000FFF7E1FF0446284600F000F910B14FF063
:1056D000FF3070BD204670BD45C4FFFF00487047D5
:1056E0007CE1002030B5B0F10A024FEA900E71F172
:1056F00000034EEA817EB0EB0E0061EB91014FEAB0
:10570000101E4EEA017E10EB0E0041EB11114FEA24
:10571000102E4EEA016E10EB0E0041EB11214FEA04
:10572000104E4EEA014E10EB0E0041EB11414018B5
:1057300041F100014FEAD00040EA41704FEAD10147
:1057400010EB80054FEA810444EA907444EB0104B5
:105750006D1944EB0404521BA3414FF0000348BFF2
:105760000A3200D530BD401C41F1000130BD0000BF
:105770002DE9F0411F46044603260168072A01F47B
:10578000006004DB08B116A505E016A503E008B12A
:1057900015A500E015A521F010002060A069C01E2D
:1057A000A0610FB1401EA0612046AFF300804FB151
:1057B000D4E9012138469047206A401C2062C01C71
:1057C000206206E0206AFAE7D4E9012115F8010B0E
:1057D0009047761EF8D22046AFF30080BDE8F081F6
:1057E0004E414E006E616E00494E4600696E660085
:1057F0002DE9F047814616468AB0334878440DC8F3
:105800008DE80D0030487844801C03AC0DC884E856
:105810000D0041F69B300844372190FBF1F290FBDC
:10582000F1F5A5F1800501FB12041B3C02D5644291
:10583000012000E00020DFF890A080460027FA4415
:10584000AAF1BE0A0DE0E00709D03246684607EB30
:1058500047010AEB810100F032FB8DE8070064107C
:105860007F1C002CEFD1184F7F44AC3F18E0E807B5
:1058700014D007EB04100DF1180A90E80E008AE826
:105880000E00C068F04201D198190890324606A96E
:1058900003A800F014FB03AB83E807006D10641C41
:1058A000002DE4D132466946B8F1000F03A802D0BA
:1058B00000F0F1FA01E000F002FBC9E90001C9F8CB
:1058C00008200AB0BDE8F087DCDD0000007B00F0B6
:1058D00080007047004870475CE100207546FFF784
:1058E000F9FFAE4605006946534620F0070085469D
:1058F00018B020B5FCF7B8F9BDE820404FF000061D
:105900004FF000074FF000084FF0000B21F00701A7
:10591000AC46ACE8C009ACE8C009ACE8C009ACE8EA
:10592000C0098D4670470446AFF300802046FAF761
:1059300087FC00004FF0013C50F8042B51F8043B69
:105940009A4221D1A2EB0C03934313EACC1317D153
:1059500050F8042B51F8043B9A4215D1A2EB0C03EA
:10596000934313EACC130BD150F8042B51F8043BAA
:105970009A4209D1A2EB0C03934313EACC13DBD078
:105980004FF00000704700BFD01A01BAB1FA81F1A0
:1059900001F0180122FA01F0CB40C1F12001DBB285
:1059A000C0B2C01A2CFA01F3D11A914311EAC31103
:1059B000E6D170475FEA400C08BF91F0000F4FEA54
:1059C0008C234FEAC12243EA51514FEA1C5018BFC1
:1059D00000F5F0404FEA300018BF41F000415FEAA7
:1059E0006C5C00F02980BCF1FF3F08BF40F08040B4
:1059F0007047130C06BF12044FF0100C4FF0000C50
:105A0000130E04BF12020CF1080C130F04BF120195
:105A10000CF1040C930F04BF92000CF1020CD30F95
:105A200004BF52000CF1010C11464FF00002A0F12E
:105A30001F00A0EB0C00704711F0004F08BF70472B
:105A400031F000413FF4D5AF0B0C06BF09044FF015
:105A5000100C4FF0000C0B0E04BF09020CF1080CE7
:105A60000B0F04BF09010CF1040C8B0F04BF89005C
:105A70000CF1020CCB0F04BF49000CF1010CCCF16E
:105A80002003A0EB0C0022FA03F302FA0CF241EA25
:105A9000030100F10100704720F07F4C80EA030011
:105AA00023F07F47ACEB070303F57C5300F0004085
:105AB00003F1FF032DE980494FEA154B09B44FEA82
:105AC000144325EA0B4E24EA03480FF2042606EBA2
:105AD000132749083E785FEA320203FB0667C7F5E1
